{
  "_format": "hh-sol-artifact-1",
  "contractName": "gasChallenge",
  "sourceName": "contracts/gasChallenge.sol",
  "abi": [
    {
      "inputs": [],
      "name": "getSumOfArray",
      "outputs": [
        {
          "internalType": "uint256",
          "name": "",
          "type": "uint256"
        }
      ],
      "stateMutability": "view",
      "type": "function"
    },
    {
      "inputs": [],
      "name": "notOptimizedFunction",
      "outputs": [],
      "stateMutability": "nonpayable",
      "type": "function"
    },
    {
      "inputs": [],
      "name": "optimizationApplied",
      "outputs": [
        {
          "internalType": "bool",
          "name": "",
          "type": "bool"
        }
      ],
      "stateMutability": "view",
      "type": "function"
    },
    {
      "inputs": [],
      "name": "optimizedFunction",
      "outputs": [],
      "stateMutability": "nonpayable",
      "type": "function"
    }
  ],
  "bytecode": "0x6080604052604051806101400160405280600160ff168152602001600260ff168152602001600360ff168152602001600460ff168152602001600560ff168152602001600660ff168152602001600760ff168152602001600860ff168152602001600960ff168152602001600a60ff16815250600090600a6100829291906100b0565b506000600160006101000a81548160ff0219169083151502179055503480156100aa57600080fd5b5061011f565b8280548282559060005260206000209081019282156100f1579160200282015b828111156100f0578251829060ff169055916020019190600101906100d0565b5b5090506100fe9190610102565b5090565b5b8082111561011b576000816000905550600101610103565b5090565b6103358061012e6000396000f3fe608060405234801561001057600080fd5b506004361061004c5760003560e01c806368b5f223146100515780636f4d17091461005b5780637ce418941461007957806380d2c80314610083575b600080fd5b6100596100a1565b005b6100636100ea565b60405161007091906101d6565b60405180910390f35b6100816100fd565b005b61008b61015d565b604051610098919061020a565b60405180910390f35b60005b6000805490508110156100e75760008082815481106100c6576100c5610225565b5b906000526020600020018190555080806100df90610283565b9150506100a4565b50565b600160009054906101000a900460ff1681565b600160009054906101000a900460ff1661015b57600080546000805b8281101561013c5783548201915060008455602084019350600181019050610119565b5050505060018060006101000a81548160ff0219169083151502179055505b565b6000806000905060005b6000805490508110156101b3576000818154811061018857610187610225565b5b90600052602060002001548261019e91906102cb565b915080806101ab90610283565b915050610167565b508091505090565b60008115159050919050565b6101d0816101bb565b82525050565b60006020820190506101eb60008301846101c7565b92915050565b6000819050919050565b610204816101f1565b82525050565b600060208201905061021f60008301846101fb565b92915050565b7f4e487b7100000000000000000000000000000000000000000000000000000000600052603260045260246000fd5b7f4e487b7100000000000000000000000000000000000000000000000000000000600052601160045260246000fd5b600061028e826101f1565b91507fffffffffffffffffffffffffffffffffffffffffffffffffffffffffffffffff82036102c0576102bf610254565b5b600182019050919050565b60006102d6826101f1565b91506102e1836101f1565b92508282019050808211156102f9576102f8610254565b5b9291505056fea264697066735822122051043f63c068fe95040b0c6880a2386d20a0285488fa5552e0b61dcc17e0bea464736f6c63430008120033",
  "linkReferences": {},
  "deployedLinkReferences": {}
}